:100000000EC028C027C026C041C124C023C022C0C2
:1000100021C020C01FC01EC01DC01CC02CC0112488
:100020001FBECFE5D2E0DEBFCDBF10E0A0E6B0E05E
:10003000E0ECF9E002C005900D92A83AB107D9F7BB
:1000400020E0A8EAB0E001C01D92AF3AB207E1F7A4
:1000500060D1B4C4D5CF982F96959575880F8A7ABC
:10006000982B892F869586958373990F990F9C7C81
:10007000892B829508951F920F920FB60F9211242B
:100080008F939F938091A9009091AA000197B1F45A
:1000900082E090E09093AA008093A9008091A8004C
:1000A0008795882787958F678FB98EE48EB99F9142
:1000B0008F910F900FBE0F901F901895C19AB99A0B
:1000C0001DB8769A1092AA001092A900F0CF209144
:1000D000A9003091AA00232BD1F721E030E0309322
:1000E000AA002093A900B7DF8093A80082E08ABD10
:1000F00081E083BF8CB581608CBD12BE88E689BD6E
:1001000084E58DB9B99A8091A80086958FB988E465
:100110008EB90895CF93DF931F92CDB7DEB7898351
:100120008091A9009091AA00892BD1F781E090E0FD
:100130009093AA008093A90089818DDF8093A80005
:1001400082E08ABD81E083BF8CB581608CBD12BE28
:1001500088E689BD84E58DB9B99A8091A800869515
:100160008FB988E48EB90F90DF91CF9108950F93E6
:100170001F93CF93DF93EC018C01060F111DC01765
:10018000D10729F4DF91CF911F910F9108958991A3
:100190009EDFF5CFEF92FF920F931F93CF93DF93E4
:1001A0007C01062F10E0D0E0C0E0C017D10739F481
:1001B000DF91CF911F910F91FF90EF900895F7017C
:1001C000EC0FFD1F8081A6DF2196EFCFEF92FF920B
:1001D0000F931F93CF93DF93182FF92E6FEF70E0DB
:1001E00013D1082FE12EC12FDF2D8C2F8E198017F0
:1001F00040F0802FDF91CF911F910F91FF90EF90F2
:100200000895899164DFF1CFCF92DF92EF92FF9250
:100210000F931F93CF93DF93CDB7DEB7DA950FB669
:10022000F894DEBF0FBECDBF9E01255F3E4FF901A2
:10023000419151919F0160E071E0CE0101967C01F6
:10024000EED08C0197FD0DC08F3F910519F014F091
:100250000FEF10E06701C6018E199F098017910703
:1002600084F0C801D3950FB6F894DEBF0FBECDBFA2
:10027000DF91CF911F910F91FF90EF90DF90CF9082
:100280000895F60181916F0122DFE5CF1F920F9251
:100290000FB60F9211248F939F93AF93BF938091CA
:1002A000AB009091AC00A091AD00B091AE00019672
:1002B000A11DB11D8093AB009093AC00A093AD0045
:1002C000B093AE0086E88FBDBF91AF919F918F91A3
:1002D0000F900FBE0F901F9018951092AB001092C8
:1002E000AC001092AD001092AE0086E88FBD8EE09B
:1002F00080BF89B7846089BF78940895F89460912D
:10030000AB007091AC008091AD009091AE007894FC
:100310000895CF93DF93CDB7DEB7CA55D1090FB695
:10032000F894DEBF0FBECDBFD8DF30E020E00EE195
:1003300010E0C901B80154D0FC01E857FF4F80819B
:10034000E1E0F0E0EC0FFD1FE20FF31F80832F5F71
:100350003F4F2A35310569F7BC9AC498B49A80E6B4
:10036000882E80E0982E92E7E92E90E0F92EC6DFE5
:10037000D62EC72EB82EA92E9F938F937F936F935F
:100380009F928F9241DF0F900F900F900F900F90E0
:100390000F9010E000E0E1E0F0E0EC0FFD1FE00F57
:1003A000F11F8081B7DE0F5F1F4F0A35110599F7E6
:1003B000AF92BF92CF92DF92FF92EF9225DF2FE3B1
:1003C0008DE093E0215080409040E1F700C00000B4
:1003D000B49A0F900F900F900F900F900F90C7CF7F
:1003E000AA1BBB1B51E107C0AA1FBB1FA617B7075B
:1003F00010F0A61BB70B881F991F5A95A9F7809577
:100400009095BC01CD010895FC01615070400190B0
:100410000110D8F7809590958E0F9F1F0895AEE03C
:10042000B0E0E4E1F2E0A1C28C01FA0186E08C8345
:100430001A83098377FF02C060E070E86150710998
:100440007E836D83A901BF01CE01019611D04D813C
:100450005E8157FD0AC02F813885421753070CF47F
:100460009A01020F131FF80110822E96E4E099C240
:10047000ABE0B0E0EDE3F2E06AC27C013B018A014F
:10048000FC0117821682838181FFBAC1CE010196D9
:100490005C01F7019381F30193FD859193FF8191B5
:1004A0003F01882309F449C1853239F493FD8591D0
:1004B00093FF81913F01853221F4B70190E0AED1E5
:1004C000E8CF912C212C312CFFE1F31538F08B3241
:1004D00011F190F4803209F1833229F137FC3CC0EC
:1004E00020ED280F2A3050F536FE20C0892D6AE015
:1004F00025D2922E980E06C08D3291F0803371F77E
:10050000689430F8F30193FD859193FF81913F0149
:100510008111DACF21C0689431F8689432F8F2CFB3
:10052000689433F8EFCF689434F8ECCF822D6AE00A
:1005300005D2222E280E689435F8E4CF8E3229F4A5
:1005400036FCFBC0689436F8DDCF8C3619F468941D
:1005500037F8D8CF8836B1F2982F9F7D95549330D5
:10056000D8F0833691F18337B1F1833509F05EC05D
:100570002801F2E04F0E511CF801C080D180692D96
:1005800070E036FC02C06FEF7FEFC6013CD14C013A
:10059000689437F882010AC00C5F1F4F2FE329834C
:1005A00088248394912C6501E89437F833FE2AC09F
:1005B000522C8114910459F5552009F46ACFB701E2
:1005C00080E290E02BD15A94F7CFF80180818983A3
:1005D0000E5F1F4FE5CF2801F2E04F0E511CF801CE
:1005E000C080D180692D70E036FC02C06FEF7FEFD4
:1005F000C6010ADF4C018201D7CFB70180E290E04B
:100600000DD12A942814190409F0B8F7D1CFF601B6
:1006100037FC859137FE81916F01B70190E0FED0E4
:1006200051105A94F1E08F1A9108C3CF843619F013
:10063000893609F073C0F80137FE67C060817181A7
:10064000828193810C5F1F4FF32DFF763F2E97FF22
:1006500009C090958095709561957F4F8F4F9F4F02
:10066000689437F82AE030E0A50108D1C82ECA18EE
:10067000DC2C832C36FE0CC0E89480F8C91440F4BE
:1006800034FE05C032FC03C0F32DFE7E8F2ED92C24
:1006900084FE90C0FE01EC0DF11D8081803309F0D5
:1006A00082C0282D297E822E882D8870582E83FCAA
:1006B0008FC080FE89C09C2CD21418F42C0C922C74
:1006C0009D1884FE8BC0B70180E390E0A7D082FE26
:1006D00008C088E790E081FE02C088E590E0B7019D
:1006E0009DD0C91408F486C0CA94D12C9FEFC91AB2
:1006F000D90ACA0CDB1CF60182916F01B70190E0A8
:100700008DD0AC14BD04B9F757CF60817181072E2D
:10071000000C880B990B0E5F1F4F96CFD32CE894DB
:10072000D4F82AE030E0853731F1232D297FD22E0D
:100730008F36F9F040F48835A1F0F7018681978172
:100740002B96E2E120C1803749F08837B1F7D4FE1B
:1007500002C06894D2F820E130E00DC06894D4F86B
:10076000F6CF34FE03C0822F8660D82E20E132E01F
:1007700002C028E030E0F801D7FE0EC06081718130
:10078000828193810C5F1F4FA50178D0C82ECA18B3
:100790003D2CE89437F86CCF6081718190E080E067
:1007A0000E5F1F4FF1CF82FC02C0D3947DCFD39454
:1007B000D3947ACF882D867809F476CFF6CFB70117
:1007C00080E290E02BD0D394D214C8F3512C79CF8F
:1007D000522C5D18D21408F474CFF8CF882D867887
:1007E00009F47FCF8BE281FE80E287FC8DE2B701C6
:1007F00090E076CFB70180E390E010D09A9471CF6B
:100800008FEF9FEF9DCFFC0105906150704001106C
:10081000D8F7809590958E0F9F1F08950F931F9383
:10082000CF93DF93182F092FEB018B8181FD09C036
:100830001FEF0FEF812F902FDF91CF911F910F911D
:10084000089582FF14C02E813F818C819D812817DD
:1008500039073CF4E881F981CF01019699838883B7
:1008600010838E819F8101969F838E83E3CFE885DD
:10087000F985812F0995892BA1F3DACFFA01AA27EF
:10088000283061F1203191F1E8946F936E7F6E5FB3
:100890007F4F8F4F9F4FAF4FB1E040D0B4E03ED07D
:1008A000670F781F891F9A1FA11D680F791F8A1F64
:1008B000911DA11D6A0F711D811D911DA11D22D0C9
:1008C00009F468943F91062E000C3019000C000CBE
:1008D0003019305D3193CEF6CF010895462F477021
:1008E000405D4193B3E00FD0C9F7F6CF462F4F706C
:1008F000405D4A3318F0495D31FD4052419302D0CA
:10090000A9F7EACFB4E0A69597958795779567956F
:10091000BA95C9F700976105710508959B01AC016F
:100920000A2E06945795479537952795BA95C9F796
:10093000620F731F841F951FA01D0895002480FD62
:10094000060E660F11F08695D1F7802D08952F922F
:100950003F924F925F926F927F928F929F92AF924F
:10096000BF92CF92DF92EF92FF920F931F93CF939C
:10097000DF93CDB7DEB7CA1BDB0B0FB6F894DEBF33
:100980000FBECDBF09942A88398848885F846E8459
:100990007D848C849B84AA84B984C884DF80EE80A3
:1009A000FD800C811B81AA81B981CE0FD11D0FB6AC
:1009B000F894DEBF0FBECDBFED010895F894FFCFD0
:1009C0000A52656164696E6720617420256C753A0E
:1009D0000A000A446F6E652028737461727465643E
:1009E0003A20256C75292E0061626364656667682C
:1009F000696A6B6C6D6E6F707172737475767778EF
:080A0000797A31323334000031
:00000001FF
